:020000040800F2
:10000000285C0020FD0200085B3200087F2C0008FD
:1000100059320008250B0008E543000800000000E5
:100020000000000000000000000000003D02000889
:100030008D0C00080000000099020008C13C000877
:100040001703000817030008170300081703000828
:100050001703000817030008170300081703000818
:100060001703000817030008170300081703000808
:1000700017030008170300081703000817030008F8
:1000800017030008170300081703000817030008E8
:1000900017030008170300081703000817030008D8
:1000A00017030008170300081703000817030008C8
:1000B00017030008170300081703000817030008B8
:1000C00017030008170300081703000817030008A8
:1000D00017030008CD4300081703000817030008A2
:1000E0001703000817030008170300081703000888
:1000F0001703000817030008170300081703000878
:100100001703000817030008170300081703000867
:10011000170300081703000817030008813D0008B3
:1001200017030008F90B0008050C00081703000866
:100130001703000817030008170300081703000837
:100140001703000817030008170300081703000827
:10015000170300081703000817030008D943000815
:100160001703000817030008170300081703000807
:100170001703000817030008170300080000000019
:10018000170300081703000800F002F800F047F812
:100190000AA090E8000C82448344AAF10107DA45E2
:1001A00001D100F03CF8AFF2090EBAE80F0013F0ED
:1001B000010F18BFFB1A43F0010318473C5E000013
:1001C0005C5E0000103A24BF78C878C1FAD85207A4
:1001D00024BF30C830C144BF04680C6070470000C1
:1001E0000023002400250026103A28BF78C1FBD840
:1001F000520728BF30C148BF0B607047642900F028
:10020000AD81752900F0AA81732900F06883002070
:1002100070471FB505F026FE1FBD10B510BD00F0DC
:10022000CDFB1146FFF7F5FF04F0FAF800F0EBFB09
:1002300003B4FFF7F2FF03BC04F0E5F82C4B196898
:100240000868B0E8F04F80F30988BFF36F8F4FF074
:10025000000080F311887047000000000848006823
:10026000006880F308884FF0000080F3148862B6BD
:1002700061B6BFF34F8FBFF36F8F00DF00BF00BFCA
:1002800008ED00E0DFF80C00016841F47001016046
:10029000704700BF88ED00E0EFF30980BFF36F8F78
:1002A000134B1A681EF0100F08BF20ED108A20E9CA
:1002B000F04F106009B44FF0500080F31188BFF385
:1002C0004F8FBFF36F8F05F029F84FF0000080F3D8
:1002D000118809BC19680868B0E8F04F1EF0100FCB
:1002E00008BFB0EC108A80F30988BFF36F8F7047A6
:1002F00088000020EFF30580704700000948804720
:1003000009480047FEE7FEE7FEE7FEE7FEE7FEE7F7
:10031000FEE7FEE7FEE7FEE704480549054A064B0F
:1003200070470000713D0008890100082850002036
:10033000285C00202854002028540020704753EAED
:10034000020C00F069802DE9F04B4FF00006002B05
:100350001FBFB3FA83F503FA05F424FA05F65E40ED
:1003600012BF1643B2FA82F502FA05F4C5F1200570
:100370001EBF22FA05FC44EA0C04203556EA044C60
:100380004FEA144418BF641C4FF000084FF00009F6
:10039000904271EB030C39D3002919BFB1FA81F7F0
:1003A00001FA07F6B0FA80F700FA07F6C7F120075E
:1003B0001EBF20FA07FC46EA0C062037B6FBF4FC09
:1003C000A7EB0507103F07F01F0BCBF120060CFA37
:1003D0000BFB2CFA06F644BFB3460026202FA4BF21
:1003E0005E464FF0000B5BEA060C08BF4FF0010BB6
:1003F00019EB0B09ABFB027C48EB0608C01B06FBA4
:1004000002CC0BFB03CC71EB0C01C1E70B4602469F
:1004100041464846BDE8F08B13B54FF000004FF061
:100420000001AFF30080BDE81C4070470FB40449E1
:1004300010B503AA029800F057FA10BC5DF814FB3F
:10044000580000200FB41CB5074B06AA7B44694630
:100450000090059800F011FA0020694600F020FA9B
:100460001CBC5DF814FB0000510400000FB41CB567
:100470000C0007AA009001D02044401E074B7B448B
:1004800069460190069800F0F8F9002C03D06946FF
:10049000002000F005FA1CBC5DF814FB29040000E4
:1004A0002DE9F0410E460446002020622046E16816
:1004B000884730B3252805D0D4E901219047206A28
:1004C000401CF2E7E168204600278847050018D065
:1004D000A5F14100192802D820354FF400673246B3
:1004E000294620462760FFF789FE40B1012804D045
:1004F000F61D26F007060836D8E7361DD6E728464B
:10050000DAE7206ABDE8F08170B50C460546012A9D
:1005100005D02878800600D5EA69002302E001238F
:1005200005E05B1C934202D2E05C0028F9D1A86987
:10053000E618C01AA861286A184428622846AFF352
:10054000008004E0D5E9012114F8010B9047B44282
:10055000F8D32846AFF3008070BD00002DE9F041CC
:100560000646002410687529314616A510D0AFF351
:100570000080002802DA404213A507E031688A07AC
:1005800001D512A502E0490704D511A5012401E017
:10059000AFF3008000210A2206F1240709E0B0FB36
:1005A000F2FCB0FBF2F302FB1C003030785418462A
:1005B000491C0028F3D123462A463046BDE8F041C5
:1005C00000F0FCB8000000002D0000002B0000002F
:1005D00020000000401ECAB210F8011F8A4202D05B
:1005E0000029F9D10020704730B505460B462A4650
:1005F00013F8014B12F8010B08B1A042F8D01CB15E
:10060000002802D06D1CF1E7284630BD10B5431C10
:1006100002E010F8011B71B18107FAD14FF00132ED
:1006200002C88C1A8C4314EAC211F9D0C01A0A0607
:1006300003D0C01E10BDC01A10BD0A0401D0801E18
:1006400010BD0902FCD0401E10BD032A40F23080CC
:1006500010F0030C00F0158011F8013BBCF1020F03
:10066000624498BF11F801CB00F8013B38BF11F884
:10067000013BA2F1040298BF00F801CB38BF00F89B
:10068000013B11F0030300F04181083AC0F00880FB
:1006900051F8043B083A51F804CBA0E80810F5E7FC
:1006A000121D5CBF51F8043B40F8043BAFF30080DF
:1006B000D20724BF11F8013B11F801CB48BF11F854
:1006C000012B24BF00F8013B00F801CB48BF00F824
:1006D000012B704702F0FF0343EA032242EA024281
:1006E00000F048B94FF0000200B513469446964614
:1006F000203922BFA0E80C50A0E80C50B1F1200135
:10070000BFF4F7AF090728BFA0E80C5048BF0CC0E2
:100710005DF804EB890028BF40F8042B08BF704740
:1007200048BF20F8022B11F0804F18BF00F8012BB2
:10073000704700004FF0013C50F8042B51F8043B87
:100740009A4221D1A2EB0C03934313EACC1317D1A5
:1007500050F8042B51F8043B9A4215D1A2EB0C033C
:10076000934313EACC130BD150F8042B51F8043BFC
:100770009A4209D1A2EB0C03934313EACC13DBD0CA
:100780004FF00000704700BFD01A01BAB1FA81F1F2
:1007900001F0180122FA01F0CB40C1F12001DBB2D7
:1007A000C0B2C01A2CFA01F3D11A914311EAC31155
:1007B000E6D1704770477047704770472DE9F047A2
:1007C0000D4699469246044600F1240801688806C1
:1007D00004D5E06921F01001216000E00120A84269
:1007E00001DD471B00E00027A1697A1902EB09002F
:1007F000081AA0612078C00602D42046AFF300801A
:10080000002608E0D4E901211AF806009047206A82
:10081000401C761C20624E45F4DB2078C0060AD5C9
:100820002046AFF3008006E0D4E901213020904754
:10083000206A401C2062381EA7F10107F4DC07E0A3
:10084000D4E9012118F805009047206A401C206275
:10085000281EA5F10105F3DC2046AFF300802078C7
:10086000000602D50220BDE8F0870120FBE700006A
:1008700001694A1C02610878704700B58FB0CDE964
:1008800001310021059105497944CDE90310114654
:100890006846FFF705FE0FB000BD0000E5FFFFFF53
:1008A0000A6802F8010B0A607047D1E900239A42F6
:1008B00002D2531C0B601070704710B5436913B11E
:1008C000AFF3008001E0FFF71FFE012010BD12789A
:1008D00000F124010A7000224A700122EDE711683C
:1008E0004FF0FF32E9E70000074B70B50D467B443F
:1008F000FFF7C3FF0446284600F05CF810B14FF044
:10090000FF3070BD204670BD173B000010B5203A87
:10091000C0F00B80B1E81850203AA0E81850B1E8B8
:100920001850A0E81850BFF4F5AF5FEA027C24BF6E
:10093000B1E81850A0E8185044BF18C918C0BDE865
:1009400010405FEA827C24BF51F8043B40F8043B2E
:1009500008BF7047D20728BF31F8023B48BF11F8E3
:10096000012B28BF20F8023B48BF00F8012B70473D
:100970004FF000020429C0F0128010F0030C3FF485
:10098000B3AECCF1040CBCF1020F18BF00F8012B80
:10099000A8BF20F8022BA1EB0C01FFF7A5BE5FEA70
:1009A000C17C24BF00F8012B00F8012B48BF00F8E0
:1009B000012B7047007B00F080007047754600F007
:1009C0002BF8AE4605006946534620F007008546E1
:1009D00018B020B5FFF7A0FCBDE820404FF000069E
:1009E0004FF000074FF000084FF0000B21F0070117
:1009F000AC46ACE8C009ACE8C009ACE8C009ACE85A
:100A0000C0098D46704710B50446AFF300802046FC
:100A1000BDE81040FFF70CBC00487047C44F0020F1
:100A20002DE9F74FADF5207D83461746802180A83C
:100A3000FFF758FE4FF4007949466846FFF752FE2B
:100A4000002403F00FFD2B4D06464FF48061281D56
:100A5000FFF748FEA046A5F80484A5F8068458468A
:100A6000FFF7D4FD82B24FF47A752B4659462248DF
:100A700002F0B4F82B46022220A11F4802F0AEF883
:100A80002CE07F2280A91B4803F035FB051E22DDE8
:100A900080A91BA001F80580FFF7C8FC6019494632
:100AA000884203D300246846FFF71CFEEA460DEB9C
:100AB00004002A4680A9FFF7C8FD601984B2684681
:100AC0000AF80480A199FFF78FFD20B100200DF5F1
:100AD000237DBDE8F08F0A2003F0B7FC03F0C2FCD1
:100AE000801BB842CDD3594609A0FFF79FFC0120D7
:100AF000EDE70000E8020020980100200D0A000048
:100B0000415420524543563A2025730D0A000000F7
:100B100041542054494D454F55543A2025730D0AF0
:100B200000000000FEE70000002801DA03A0704783
:100B300001DD03A0704704A070470000555000007D
:100B4000444F574E0000000053544F500000000027
:100B500000F048B80421014800F002B88C5F00089A
:100B600070B50E460546002414E000BF35F8240099
:100B700098B100F01BF800F02FF800BF05EB8400DF
:100B8000408803F062FC00F02DF81E2003F05DFCAD
:100B9000641CA4B2B442E9D370BD00F023F8EDE7C1
:100BA00006210148FFF7DCBF745F000870B10849F7
:100BB000B1FBF0F0022800D20220064A411E136861
:100BC000D962D160116840084863704700F00AB8E4
:100BD00040420F00080100200021014801F01EBD25
:100BE00008010020034900200968486301460148C4
:100BF00001F078BD08010020014800F0AFBC000002
:100C000040020020014800F0A9BC0000E0010020E3
:100C100001681823CAB2103AB2FBF3F2054B6FF326
:100C20000901032A9B5CC36500D9091D816508463B
:100C300070470000545F000810B5014600208B6922
:100C40008A6A4FF0C07453B1B3F5005F15D072B12A
:100C5000012A0CD0022A0AD0032A09D104E01AB1D1
:100C6000012A06D0022A03D1C96AC90100D5012090
:100C700010BDC96AA142FAD010BD002AF7D0012ADE
:100C8000F2D0022AF3D0032AF3D010BD704700003F
:100C900010B5A0B040F25B7423461DA220A16846A7
:100CA000FFF7D0FB22461AA124A0FFF7BFFB42F2B8
:100CB000107228A16846FFF7B3FE28B126A0FFF7FF
:100CC000B5FB012020B010BD29A0FFF7AFFB4FF40A
:100CD000FA6220A12EA0FFF7A3FE20B130A0FFF7FB
:100CE000A5FB0220EEE736A0FFF7A0FB40F6B832E6
:100CF0003AA13BA0FFF794FE20B13CA0FFF796FB82
:100D00000320DFE73FA0FFF791FB0020DAE70000B8
:100D10003139322E3136382E3133372E3100000042
:100D200041542B43495053544152543D2254435053
:100D3000222C222573222C256400000045535020CC
:100D40005443502053544152543A2025733A256459
:100D50000D0A00004F4B00004553502054435020D3
:100D60005354415254206661696C65640D0A000059
:100D700045535020736574207472616E7370617294
:100D8000656E74206D6F64652E2E2E0D0A000000B6
:100D900041542B4349504D4F44453D310000000024
:100DA000455350207472616E73706172656E742069
:100DB0006D6F6465206661696C65640D0A000000F2
:100DC00045535020656E7465722073656E64206DA6
:100DD0006F64652E2E2E0D0A000000003E000000FC
:100DE00041542B43495053454E4400004553502035
:100DF00043495053454E44206661696C65640D0A51
:100E000000000000455350207472616E737061726F
:100E1000656E742073656E64206D6F6465204F4B42
:100E20000D0A000010B54FF49664204603F00DFB48
:100E30004FF47A73032209A1094801F0CFFE20463E
:100E400003F003FB074C4FF48061201DFFF74AFCC1
:100E50000020A4F80404A4F8060410BD2B2B2B00DA
:100E600098010020E80200202DE9F04FADF5017D4A
:100E70000E468146802160A8FFF734FC4FF4C07B0A
:100E800059466846FFF72EFC002403F0EBFA0746AC
:100E9000B9F100001AD0CEB12FA331A23146FFF72D
:100EA000E5FA304D4FF48061281DFFF71BFCA0468A
:100EB000A5F80484A5F806844FF47A730A222AA1BF
:100EC0002C4801F08BFE40F6B83A3DE001200DF5CC
:100ED000017DBDE8F08F7F2260A9224803F00BF965
:100EE000051E2EDD60A9601901F80580594688426B
:100EF00003D300246846FFF7F5FB0DEB04002A46F8
:100F000060A9FFF7A2FB601984B21BA10DF8048051
:100F10006846FFF769FBA0B1C01D05462221FFF717
:100F200059FB70B1401B84B2B44201D3761EB4B2F7
:100F3000224629464846FFF788FB09F8048000202E
:100F4000C5E70A2003F081FA03F08CFAC11B514572
:100F5000C1D30220BBE70000756E6B6E6F776E0029
:100F600025730000E802002041542B4349465352A8
:100F70000D0A00009801002053544149502C2200D2
:100F800070B5A0B0FFF74EFF35A0FFF74FFA002471
:100F900040F2DC554FF4FA76611C35A0FFF746FAB3
:100FA0002A4638A138A0FFF73BFD58B1FFF73AFFBA
:100FB000304603F04AFA641CE4B2052CECD301205D
:100FC00020B070BD4FF47A7422462EA12FA0FFF7F7
:100FD00027FD22462BA12FA0FFF722FD224629A1A3
:100FE0002FA0FFF71DFD32A0FFF720FA6400224674
:100FF00024A134A0FFF714FD08B10220E0E734A0DB
:10100000FFF714FA40F6B8321EA134A0FFF708FD2E
:1010100008B10320D4E741F2883003F016FA31A377
:1010200033A236A16846FFF70DFA39A0FFF7FEF9A3
:1010300044F6206213A16846FFF7F2FC20B13AA003
:10104000FFF7F4F90420BBE73BA0FFF7EFF92246D6
:101050000CA13FA0FFF7E4FC0028B1D00520AFE7CA
:10106000415420546573742E2E2E0D0A000000008A
:1010700041542054657374207472792025752E2E86
:101080002E0D0A004F4B00004154000041544530E2
:101090000000000041542B434950434C4F5345003E
:1010A00041542B4349504D4F44453D300000000012
:1010B0005365742057694669204D6F64652E2E2E46
:1010C0000D0A000041542B43574D4F44453D31001C
:1010D00052657365742E2E2E0D0A000041542B525A
:1010E000535400006368696C696368696C6C000044
:1010F0006368696C6C6368696C6C000041542B43D5
:10110000574A41503D222573222C2225732200008C
:10111000436F6E6E656374696E6720576946692E0A
:101120002E2E0D0A00000000576946692054696D93
:10113000656F75740D0A00005769466920436F6E2C
:101140006E6563746564204F4B210D0A000000003A
:1011500041542B4349504D55583D30000A460146F5
:10116000014802F0C8BF0000E80200200A4610B59E
:1011700001464FF47A73044801F030FDBDE8104099
:10118000052003F062B900009801002072B6FEE766
:101190002DE9F04F93B04FF0000B1E4691460D46DF
:1011A0000400ADF844B0ADF840B015D0B9F1000F6F
:1011B00012D08EB1052D0FD320780321B1EB101F73
:1011C0000AD101220DF144080DF1400A0021104618
:1011D0004FF6FF7CA84203D3002013B0BDE8F08F88
:1011E000235C401C03F07F0707FB021180B289B229
:1011F0000CEAC2121B06EDD4A8F80010401EAAF893
:101200000000BDF84000401C80B2811CA942E3D818
:101210002044008847BA88B2402FDDD200EB07088F
:10122000A845D9D821183A466846FFF70EFA0DF8B6
:1012300007B01FFA88F70AA16846FFF77BFA002873
:10124000CAD1E81B85B2B54201D3761EB5B2E11909
:101250002A464846FFF7F9F909F805B00120BCE72E
:1012600047414D452F504C415945522F322F524541
:1012700053554C540000000000B5A9B0A0236A46A5
:10128000FFF786FF002802D0684600F003F829B077
:1012900000BD000010B5040004D00AA1FFF7A4F9B6
:1012A00068B901E0002010BD0AA12046FFF79CF9B3
:1012B00028B90DA12046FFF797F90028F3D00120A7
:1012C00010BD000022726573756C74223A22657835
:1012D0006974220022737461747573223A226F66F6
:1012E000666C696E652200002273746174757322E6
:1012F0003A22646973636F6E6E6563742200000046
:1013000000B5A9B0A0236A46FFF742FF002802D02B
:10131000684600F003F829B000BD000010B50400D5
:1013200005D00DA1FFF760F918B1012010BD002014
:1013300010BD0DA12046FFF757F908B1022010BDDE
:101340000DA12046FFF750F920B92046FFF7A2FF74
:101350000028F4D0032010BD22726573756C7422CE
:101360003A2277696E22000022726573756C7422CE
:101370003A226C6F7365220022726573756C742259
:101380003A227265736574220000000000B54FF0C8
:10139000FF3191B0884201DA084602E0012800DD01
:1013A00001200090022308A2402101A8FFF75EF867
:1013B00001AA0BA10FA0FFF739F801A908A001F0BD
:1013C0008BFD11B000BD00007B22706C61796572ED
:1013D000223A25642C226D6F7665223A25647D00C1
:1013E00047414D452F504C415945522F322F494EC0
:1013F000505554005B4D5154545D205075626C69DA
:10140000736820494E505554202573202D3E2025C9
:10141000730D0A0000B5A1B006480090022306A291
:10142000802101A8FFF722F801A90EA001F054FDC8
:1014300021B000BD5D0000207B22706C6179657277
:10144000223A25642C226970223A222573222C220A
:10145000737461747573223A226F6E6C696E6522C3
:101460007D00000047414D452F504C415945522FBA
:10147000322F5354415455530000000038B10178C5
:1014800029B1034603A220210348FEF7EFBF03A3BF
:10149000F8E70000257300005D000020756E6B6E9C
:1014A0006F776E002DE9F0410446876D00F092FAE7
:1014B000064694F835000025022806D08020606595
:1014C00084F834500120BDE8F0812068016821F0E3
:1014D000160101602068416921F080014161206CA2
:1014E00008B9A06C20B12068016821F008010160F2
:1014F0002068016821F0010101600CE000F06AFA47
:10150000801B052807D920206065032084F835005A
:1015100084F83450D7E720680068C007EED194F80B
:101520005C103F208840B860012084F8350084F8C2
:1015300034500020C7E790F83510022903D08021ED
:10154000416501207047052180F835100068016869
:1015500021F0010101600020704700002DE9F843EF
:1015600004464FF00009CDF8009063484FF416513F
:10157000A56D0068B0FBF1F72E6894F85C100820A8
:1015800000FA01F131420FD021680A6852070BD5E9
:101590000A6822F004020A6094F85C108840A8608F
:1015A000606D40F00100606594F85C104FF0010838
:1015B00008FA01F0304208D021684969090604D5CB
:1015C000A860606D40F00200606594F85C10042033
:1015D0008840304208D021680968890704D5A8608E
:1015E000606D40F00400606594F85C101020884045
:1015F000304218D021680968090714D5A86020680E
:101600000168490304D50068000308D5A16C07E010
:101610000168C90503D4016821F008010160216C4B
:1016200009B12046884794F85C1020208840304259
:1016300031D021680968C9062DD5A86094F8350015
:1016400005282068016806D0490347D500680003D3
:101650001DD4616C1CE021F0160101602068416915
:1016600021F080014161206C08B9A06C20B1206894
:10167000016821F00801016094F85C103F20884067
:10168000A86084F8358084F83490216D1FE0E16B08
:1016900009B120468847606D00282BD0606DC007D7
:1016A00014D0052084F835002068016821F001017C
:1016B00001600098401C0090B84203D82068006880
:1016C000C007F6D184F8358084F83490E16C0029A5
:1016D00010D001B02046BDE8F04308470168C905B5
:1016E000D5D4016821F01001016084F8358084F8B8
:1016F0003490CCE7BDE8F883500000202DE9F0419C
:10170000044600F067F906465CB1022084F8350013
:10171000002584F834502068016821F0010101603F
:101720000DE00120BDE8F08100F054F9801B052890
:1017300005D920206065032084F83500F2E7206891
:101740000068C007F0D12268116820480140D4E940
:1017500001031843D4E9033633431843636918433C
:10176000A3691843E3691843236A18430843616A6D
:10177000042903D1D4E90B131943084310602068EE
:101780004069666A20F0070130460E4301270428AD
:101790000CD1A06A0643E06A40B12046FFF74CFA3C
:1017A00020B14020606584F83570BAE72068466152
:1017B0002046FFF72DFA94F85C203F21914081608C
:1017C000656584F835700020ACE700003F8010F0BC
:1017D0002DE9F84FDFF8BCA10022012503264FF0C8
:1017E0000F090AF1040BAAF1040E00BF0B6805FAF9
:1017F00002F42340A34270D10F7907F00307012FB1
:1018000001D0022F16D187684FEA420806FA08FC79
:1018100027EA0C07D1F80CC00CFA08FC4CEA070CBC
:10182000C0F808C04768A7430C79C4F3001494407B
:101830003C4344600C79E443A4070AD0C4684FEAEF
:10184000420C06FA0CF7BC438F6807FA0CF72743E3
:10185000C7600C7904F00304022C12D1D40800EB09
:10186000840CDCF820405707FF0E09FA07F824EA39
:101870000804D1F8108008FA07F848EA0408CCF800
:10188000208004684FEA420C06FA0CF7BC430F793B
:1018900007F0030707FA0CF7274307604C6814F4B6
:1018A000403F70D03C4C276847F48047276024684D
:1018B00022F0030704F480440094384C07EB040C36
:1018C000DCF8084897074FEA177809FA08F7BC438D
:1018D000334FB84202D1002724E054E0314FB842E0
:1018E00001D101271EE0304FB84201D1022719E093
:1018F0002E4FB84201D1032714E02D4FB84201D139
:1019000004270FE02B4FB84201D105270AE02A4FE8
:10191000B84201D1062705E0284FB84201D1072778
:1019200000E0082707FA08F72743CCF80878DAF828
:1019300000405746D1F804C09C435FEACC2C00D548
:101940001C433C60DBF800405F46D1F804C09C4378
:101950005FEA8C2C00D51C433C60DEF800407746E3
:10196000D1F804C09C435FEA8C3C00D51C433C602A
:10197000084F083F3C68D1F804C09C435FEACC3C68
:1019800000D51C433C60521C102AFFF42FAFBDE869
:10199000F88F0000083C014044380240003001400C
:1019A000000002400004024000080240000C024017
:1019B000001002400014024000180240001C0240C7
:1019C0000069084000D0012070470AB1816170476A
:1019D0000904FBE7014880687047000044000020CC
:1019E00002488168027811448160704744000020F9
:1019F0000B4810B5016841F400710160016841F4C1
:101A000080610160016841F480710160032000F091
:101A10009FF80F2000F006F800F050F8002010BDED
:101A2000003C024030B505461F4887B000240168DD
:101A300041F020010160006806A900F0200000903C
:101A400001A800F031F90498A8B100F04DF9400068
:101A50001649174AB0FBF1F11648491E026040F2E0
:101A6000E732C0E90324C0E90114846100F08CFB73
:101A7000040003D015E000F037F9E9E70D4800F065
:101A8000C5FB04000DD1372000F034F8102D07D22B
:101A900000222946372000F03BF80748056000E0A7
:101AA000012407B0204630BD4038024040420F00BC
:101AB00000140040A0020020480000200C4882B022
:101AC000016841F480410160006800F480400090AA
:101AD0000748001F016841F0805101600068002242
:101AE00000F0805000900F21901E02B000F010B85E
:101AF00044380240002809DB00F01F020121914018
:101B00004009800000F1E020C0F80011704700009B
:101B1000F0B40E4B1B680C46C3F30223C3F1070558
:101B2000042D00D90425191D072901D2002300E046
:101B3000DB1E012606FA05F1491E214099409E4010
:101B4000761E16403143F0BC02F04DBC0CED00E0B7
:101B5000064900F0070208684FF6FF03184040EA04
:101B60000220034A10430860704700000CED00E0BB
:101B70000000FA052DE9F0470E46050065D0DFF8B4
:101B80001481D8F80000F7B200F00700B04207D285
:101B900088F80070D8F8000000F00700B04254D177
:101BA00028683D4C810712D5400703D5206840F4D2
:101BB000E05020602878000703D5206840F460409A
:101BC00020602068A96820F0F00008432060287891
:101BD000C0072DD0304968680839012812D0022882
:101BE00013D0032811D00968890700292DDA21684C
:101BF00021F0030101432160FFF7ECFE814641F231
:101C0000883A0EE009688903EFE709688901ECE783
:101C1000FFF7E0FEA0EB0901514502D90320BDE822
:101C2000F0872068696800F00C00B0EB810FEFD1FD
:101C3000D8F80010404601F00701B14207D90770FB
:101C4000006800F00700B04201D00120E7E72878E3
:101C5000400705D52068E96820F4E050084320607B
:101C60002878000706D52068296920F4604040EAFA
:101C7000C100206000F058F82168084AC1F3031140
:101C8000515CC8400649086006480068FFF7CAFE74
:101C90000020C4E7003C0240083802405C5F0008B6
:101CA00050000020480000200F2202600C4A1368F8
:101CB00003F003034360136803F0F00383601368C9
:101CC00003F4E053C36012684FF4E05303EAD20216
:101CD00002610448006800F00700086070470000D7
:101CE00008380240003C0240044805490068096881
:101CF000044AC1F38221515CC84070475000002063
:101D0000083802406C5F000804480549006809680B
:101D1000044AC1F34231515CC84070475000002072
:101D2000083802406C5F0008154810B5006810F0D4
:101D30000C02144813D04110042A0FD0082A0ED1E7
:101D40000F4C241F2268236802F03F025B0207D574
:101D50002068C0F38810A0FB010106E0084610BD12
:101D60002168C1F38811A1FB00010023FEF7E7FA07
:101D70002168C1F30141491C4900B0FBF1F010BDDD
:101D8000083802400024F4002DE9F84F04006ED01A
:101D90002078DFF84C93C007A9F104054AD009F177
:101DA00004000168C1F38101012908D00068C0F373
:101DB000810002280AD1D9F80000400206D528681F
:101DC000800337D560680028E1D033E06068B0F563
:101DD000803F10D0B0F5A02F286810D020F48030BC
:101DE0002860286820F4802028606068A8B1FFF788
:101DF000F1FD06460DE0286840F48030F4E740F439
:101E000080202860F7E700BFFFF7E4FD801B64280F
:101E100073D828688003F7D50CE0FFF7DBFD064692
:101E200005E000BFFFF7D6FD801B6428F0D82868C6
:101E30008003F7D42078DFF8AC8280074FF0000AE7
:101E40003ED5A748001D016811F00C0F08D00068AE
:101E5000C0F3810002280BD1D9F80000400207D45A
:101E60002868800716D5E068012800D112E033E128
:101E7000E068B8B10120C8F80000FFF7ABFD0646E6
:101E800005E000BFFFF7A6FD801B0228C0D8286828
:101E90008007F7D52868216920F0F80040EAC100E2
:101EA00028600DE0C8F800A0FFF794FD064604E0A6
:101EB000FFF790FD801B02281FD828688007F7D401
:101EC0002078000722D5864F87486169703771B145
:101ED00001210160FFF77EFD064604E0FFF77AFD71
:101EE000801B022809D838688007F7D50EE0C0F8B3
:101EF00000A0FFF76FFD064605E082E0FFF76AFDF0
:101F0000801B02287DD838688007F7D420784007E6
:101F100068D5DFF8CCB100270BF13C0BDBF80000F3
:101F2000C0000BD4DBF8001041F08051CBF800105A
:101F3000DBF80000012700F0805000906B4E306805
:101F4000C00510D4306840F480703060FFF742FD67
:101F5000009005E0FFF73EFD0099401A022850D896
:101F60003068C005F6D55E4EA0686C3601280FD0EB
:101F70000528306810D020F001003060306820F073
:101F800004003060A068B8B1FFF724FD00900FE0B6
:101F9000306840F00100F4E740F004003060F7E7FB
:101FA000FFF718FD0099411A41F28830814266D846
:101FB00030688007F4D50EE0FFF70CFD009007E0D5
:101FC000FFF708FD0099411A41F28830814256D846
:101FD00030688007F4D42FB1DBF8001021F0805175
:101FE000CBF80010A069C8B33D49091D0968C1F3C9
:101FF000810102294AD00228504607D0C8F8600063
:1020000000E03CE0FFF7E6FC04463BE04746C8F84A
:102010006000FFF7DFFC064605E000BFFFF7DAFCD3
:10202000801B02282BD828688001F7D4D4E9070147
:102030000843A16A2E4A490802EB0141626A41EA5B
:102040008211084394F82C1040EA0161C9F800108D
:1020500001203866FFF7BEFC044606E03EE000BF04
:10206000FFF7B8FC001B022809D828688001F7D5C3
:1020700034E000BFFFF7AEFC001B022802D90320AA
:10208000BDE8F88F28688001F4D427E00128F7D054
:10209000D9F80000E26900F4800191421CD1226A63
:1020A00000F03F01914217D147F6C071626A0140CA
:1020B000B1EB821F10D1A26A4FF0FF3300F4403120
:1020C00003EB5202B1EB024F06D194F82C1000F052
:1020D0007060B0EB016F01D00120D1E70020CFE7A5
:1020E0000438024000004742800E47420070004022
:1020F0000000FFFF7047704770B590F83C20012A40
:1021000032D0012480F83C40022280F83D20036850
:102110005A689D6822F070060A6832435A60134B71
:1021200002689A4214D0B2F1804F11D0104B9A42FB
:102130000ED0104B9A420BD00F4B9A4208D00F4B47
:102140009A4205D00E4B9A4202D00E4B9A4204D1CD
:10215000496825F080031943916080F83D400021D3
:1021600080F83C10084670BD022070BD00000140A0
:102170000004004000080040000C00400004014042
:10218000004001400018004010B5040003D094F84E
:102190003D0010B107E0012010BD002084F83C0094
:1021A000204600F01FF8022084F83D00211D206821
:1021B00001F0ECFD012084F8460084F83E0084F82C
:1021C0003F0084F8400084F8410084F8420084F81D
:1021D000430084F8440084F8450084F83D00002062
:1021E00010BD000008B500680649884208D10648BD
:1021F000016841F002010160006800F002000090F7
:1022000008BD0000000400404038024090F83D1036
:10221000012901D001207047022180F83D1001689A
:10222000CA6842F00102CA6000681149884214D0AD
:10223000B0F1804F11D00F4988420ED00E4988422C
:102240000BD00E49884208D00D49884205D00D496F
:10225000884202D00C49884204D1816801F007010C
:10226000062903D0016841F0010101600020704798
:10227000000001400004004000080040000C004045
:1022800000040140004001400018004070B50446C1
:1022900090F83C000025012817D0012684F83C6006
:1022A000022084F83D002068826822F0770222F440
:1022B0007F4282600868502838D00DDC20284FD03B
:1022C00005DC90B3102811D14AE0022070BD3028FF
:1022D00046D040280AD13BE060282FD070280DD08E
:1022E000B0F5805F03D0B0F5005F12D0012584F80F
:1022F0003D60002084F83C00284670BDCB68D1E9E1
:102300000121206801F0B7FD2068816841F0770164
:1023100009E0CB68D1E90121206801F0ACFD20681B
:10232000816841F480418160E1E719E0CA68496849
:10233000206801F075FE5021206806E0CA684968EF
:10234000206801F07EFE6021206801F09EFDCEE74E
:10235000CA684968206801F063FE40212068F4E7FC
:10236000226801461046F0E770472DE9F041044627
:102370000068C66805694FF00007A90713D5B107C3
:1023800011D5F91E0161012020772068806980073E
:10239000204602D0FFF7E8FF04E000F0A9F820464D
:1023A00000F03BF92777680716D5700714D5216828
:1023B0006FF004000861022020772068806910F423
:1023C000407F204602D0FFF7CFFF04E000F090F8F6
:1023D000204600F022F92777280715D5300713D5B6
:1023E00021686FF008000861042020772068C06928
:1023F0008007204602D0FFF7B7FF04E000F078F82E
:10240000204600F00AF92777E80616D5F00614D51D
:1024100021686FF010000861082020772068C069EB
:1024200010F4407F204602D0FFF79EFF04E000F04A
:102430005FF8204600F0F1F82777E80708D0F007AA
:1024400006D021686FF001000861204600F088F98D
:10245000280608D5300606D521686FF0800008618F
:102460002046FFF747FE680608D5700606D52168A6
:102470006FF040000861204600F07CF9A8060AD5FC
:10248000B00608D521686FF0200008612046BDE83D
:10249000F041FFF730BEBDE8F081000010B586B016
:1024A000044614216846FEF71DF90E49206888424B
:1024B00015D10D480021026842F002020260006856
:1024C00000F002000590102000900220CDE90101EB
:1024D0000321CDE9031069460448FFF779F906B0F6
:1024E00010BD0000000400403038024000040240EB
:1024F000704770B5044690F83C0000260D46012850
:102500000FD0012084F83C006AB1042A1DD0082AAB
:102510002FD00C2A3FD00126002084F83C00304602
:1025200070BD022070BD206801F0B8FC2068816990
:1025300041F0080181612068816921F00401816115
:10254000206881692A69114311E0206801F0D6FCF6
:102550002068816941F4006181612068816921F40A
:1025600080618161206881692A6941EA0221816173
:10257000D2E7206801F0F8FC2068C16941F0080149
:10258000C1612068C16921F00401C1612068C1698D
:102590002A69114311E0206801F01AFD2068C16921
:1025A00041F40061C1612068C16921F48061C161A9
:1025B0002068C1692A6941EA0221C161ACE710B50E
:1025C000040003D094F83D0010B107E0012010BDD5
:1025D000002084F83C00204600F01EF8022084F819
:1025E0003D00211D206801F0D1FB012084F8460048
:1025F00084F83E0084F83F0084F8400084F84100ED
:1026000084F8420084F8430084F8440084F84500CC
:1026100084F83D00002010BD7047704710B5044697
:10262000022249B104290ED0082913D094F84100A0
:10263000012816D0012010BD94F83E000128F9D1E0
:1026400084F83E200FE094F83F000128F2D184F88E
:102650003F2008E094F840000128EBD184F84020A6
:1026600001E084F841200122206801F0F7FB1649BF
:102670002068164A884201D0904203D1436C43F44B
:10268000004343642068884213D0B0F1804F10D0DB
:102690000F4988420DD00F4988420AD00E4988421E
:1026A00007D0904205D00D49884202D00C4988429B
:1026B00004D1816801F00701062903D0016841F0C7
:1026C00001010160002010BD000001400004014034
:1026D0000004004000080040000C004000400140A1
:1026E0000018004030B504460D460068002201F095
:1026F000B5FB194B41F2111120688A10984202D0A3
:10270000164B984209D1036A0B4206D1036A134261
:1027100003D1436C23F4004343642068036A0B42F3
:1027200006D1016A114203D1016821F00101016063
:1027300001203DB1042D08D0082D09D084F84100B6
:10274000002030BD84F83E00FAE784F83F00F7E748
:1027500084F84000F4E7000000000140000401405C
:1027600000680349884201D1FFF73AB97047000079
:10277000001400407047704770470000F8B50168CA
:1027800004460868CA684B6910F00F0F4FF0000547
:1027900059D003F0010602F49077374365D0C107A2
:1027A00005D0D10503D5616C41F001016164410799
:1027B00005D5D90703D0616C41F00201616481073E
:1027C00005D5D90703D0616C41F0040161640107AC
:1027D00007D502F02001314303D0616C41F00801BC
:1027E0006164616C00293AD0800604D5900602D558
:1027F000204601F0A7FC20684069616CC0F380109E
:10280000090700D460B3204601F034FC2068406919
:10281000400621D52068143050E8001F21F0400107
:1028200040E80012002AF5D1E06BA8B172490165B9
:10283000E06BFEF780FE002811D0E06B016D01B067
:10284000BDE8F040084783060FD593060DD5204616
:10285000BDE8F84001F076BC2046FFF78DFFF8BDDB
:102860002046FFF789FF6564F8BD266B2023012E03
:102870007ED1C6067CD5D6067AD508684868009011
:1028800048694FF0020640064DD5E26B106840687B
:102890004FF480770004000C3AD0A18D814237D9E3
:1028A000E085D069B8422DD020680C3050E8001F78
:1028B00021F4807140E80012002AF5D1206814301C
:1028C00050E8001F21F0010140E80012002AF5D174
:1028D0002068143050E8001F21F0400140E8001249
:1028E000002AF5D184F84230256320680C3050E886
:1028F000001F21F0100140E80012002AF5D1E06B22
:10290000FEF7D0FD6663A08DE18D401A81B206E02E
:10291000A18D8142A8D1D069B842A5D16663204675
:10292000FFF729FFF8BDA08DE18D401A81B2E08D3F
:102930000028F7D00029F5D020680C3050E8002F8F
:1029400022F4907240E80027002FF5D1206814305F
:1029500050E8002F22F0010240E80027002FF5D1B7
:1029600084F84230256320680C3050E8002F00E0E6
:1029700006E022F0100240E80023002BF3D1CDE75F
:1029800005062BD5150629D594F841002128C9D173
:10299000A068B0F5805F01D12069B0B1206A411C08
:1029A0002162216800784860E08C401E0004000C21
:1029B000E084B7D12068C16821F08001C16020683F
:1029C000C16841F04001C160F8BD206A0088C0F3D1
:1029D00008004860206A801C2062E5E74006F3D5C5
:1029E0005006F1D5CA68204622F04002CA6084F839
:1029F000413000F043F9F8BD6740000870B50400AD
:102A000004D094F84100002510B106E0012070BD0B
:102A100084F84050204600F023F8242084F8410038
:102A20002068C16821F40051C160204601F0ECFB30
:102A30002068016921F4904101612068416921F019
:102A40002A0141612068C16841F40051C160656498
:102A5000202084F8410084F842006563002070BDA6
:102A6000F0B587B0064614216846FDF73BFE4148A5
:102A70004049DFF8FCC035680024143902220323E2
:102A80000715654535D1056845F0100505600068F6
:102A900000F010000590086840F001000860086828
:102AA000694600F00100059058028DE815000720E6
:102AB000CDE903303048FEF78BFE314D2F482860BA
:102AC0007804C5E90104C5E903476C61AC61EC61B8
:102AD0002C6228466C62FEF711FE08B1FEF756FB29
:102AE000F563002205212520AE63FFF711F82520AC
:102AF0003AE0DFF890C0654538D1056845F020051B
:102B00000560006800F020000590086840F00400AF
:102B100008600868694600F004000590C0208DE850
:102B200015000820CDE903301748FEF751FE144D7B
:102B300012486035183828608005C5E90104C5E9E8
:102B400003476C61AC61EC612C6228466C62FEF755
:102B5000D5FD08B1FEF71AFBF563002205214720D9
:102B6000AE63FEF7D5FF4720FEF7C4FF07B0F0BD08
:102B7000001001404438024000000240406402401E
:102B8000E0010020001401400008024090F84230AB
:102B9000202B01D00220704721B11AB1002303631A
:102BA00001F0C0BB0120704710B50068074988429A
:102BB0000BD107480178074801F0B8FABDE810408A
:102BC000012203490448FFF7E1BF10BD0014014092
:102BD00054000020E8020020980100202DE9F8436D
:102BE000044690F84100984616460D46202802D02B
:102BF0000220BDE8F88385B17EB100206064212009
:102C000084F84100FEF7E6FEA6848146E684A068CB
:102C10002027B0F5805F02D003E00120E9E72069BA
:102C200010B12E4600250EE000260CE08021204643
:102C300001F093FBA8B9C6B116F8010B21684860F2
:102C4000E08C401EE084E08C4B464FF00002CDF853
:102C500000800028EAD14FF04001204601F07DFBC2
:102C600040B184F841700320C3E735F8020BC0F38C
:102C70000800E3E784F841700020BAE77047FEE7F8
:102C800010B5154C01221102204600F05BF801221C
:102C90005102204600F056F801229102204600F031
:102CA00051F80122D102204600F04CF80122110314
:102CB000204600F047F801225103204600F042F878
:102CC00001229103204600F03DF820460122BDE894
:102CD0001040D10300F036B80010024010B5174C78
:102CE00000224FF48071204600F02CF8002261157C
:102CF000204600F027F800222115204600F022F897
:102D00000022E114204600F01DF80022A114204604
:102D100000F018F800224FF40051204600F012F89D
:102D200000224FF48041204600F00CF82046BDE818
:102D3000104000224FF4004100F004B8001002409F
:102D4000FFF79EBFFEF741BE00B5C5B00020419021
:102D500010218DF800104290042143908DF802005C
:102D60004D228DF803108DF804208DF808105122A3
:102D700002218DF805208DF8091054228DF80620C7
:102D80008DF80A008DF807203C218DF80C0040904A
:102D90008DF80B100E228DF80D201BA10DF10E00E9
:102DA000FDF753FC1A208DF801001C216846FEF740
:102DB000DDF901F057FB184908604FF4FA7001F093
:102DC00044FB102140A8FEF7C9F90146042807D3A7
:102DD0009DF80001202803D19DF80101022805D0AB
:102DE0000EA0FDF723FB012045B000BD9DF80311A7
:102DF00021B115A0FDF71AFB0220F5E71AA0FDF797
:102E000015FB0020F0E7000053544D33325F504C67
:102E1000415945525F320000800000204D5154540A
:102E200020434F4E4E41434B2074696D656F75745E
:102E30002F6E6F20726573706F6E73652C206C65DA
:102E40006E3D25640D0A00004D51545420434F4EF1
:102E50004E41434B20726566757365642C20636F29
:102E600064653D25640D0A004D51545420434F4E76
:102E70004E41434B204F4B0D0A00000038B501F086
:102E8000F1FA0A4C2168401A47F2305188420CD9B5
:102E900007A00221006800906846FEF767F901F07C
:102EA000E1FA206003A0FDF7C1FA38BD80000020E0
:102EB000C00000004D515454206865617274206256
:102EC000656174207061636B6167652073656E6412
:102ED000206F6B0D0A0000002DE9F041C0B00746DD
:102EE00030208DF8000088466E463846FDF78EFB90
:102EF00004464046FDF78AFB05466019801C8DF8A4
:102F00000100200A8DF802008DF80340301D224692
:102F10003946FDF79AFB241D30192A464146FDF734
:102F200094FB601981B26846FEF720F940B000209A
:102F3000BDE8F081F0B5A1B0074682208DF8000011
:102F40006D463846FDF762FB0446401D8DF80100D2
:102F500000268DF8026001208DF80300200A8DF80C
:102F600004008DF80540A81D22463946FDF76DFB8B
:102F7000A01D2E54E01D81B26846FEF7F7F821B07F
:102F80000020F0BD0D4808B5016841F480010160E2
:102F90000068002200F48000009005213920FEF72F
:102FA000B7FD3920FEF7A6FD002205213A20FEF7E5
:102FB000AFFDBDE808403A20FEF79CBD3038024026
:102FC00010B5194A0121102001F0B4FA174C164A25
:102FD0000121E0611832082001F0ACFA124A2062A7
:102FE000B43A0021124801F005FB0F4AA060903A64
:102FF0000021104801F0FEFA0B4AE0606C3A002113
:103000000D4801F0F7FA084A2061483A00210B48C0
:1030100001F0F0FA044A6061243A0021084801F006
:10302000E9FAA06110BD0000245F00080000002044
:10303000B5360008A535000855360008653C00087F
:10304000A93600082DE9F04F87B014216846FDF736
:1030500049FB3B480024016841F010010160016810
:1030600001F010010591016841F0800101600168E3
:1030700001F080010591016841F0010101600168E2
:1030800001F001010591016841F00401016000684F
:10309000012200F004001602059031462948FEF78F
:1030A00094FC4FF47E47002239462648FEF78DFCFB
:1030B000DFF894A04FF47068002241465046FEF7B6
:1030C00084FCDFF888B04FF419490022494658467D
:1030D000FEF77BFC102001258DE831006946194878
:1030E000FEF776FBCDE90065CDE902546946154847
:1030F000FEF76EFB0097CDE9015469461148039431
:10310000FEF766FB0226CDF800800396CDE9015458
:1031100069465046FEF75CFBCDF800900396CDE97A
:10312000015469465846FEF753FB00966946054828
:10313000CDE90145FEF74CFB07B0BDE8F08F00007C
:1031400030380240001002400008024000000240F7
:1031500010B58EB000240794089409940A940B9437
:103160001C2168460C94FDF7BDFA1E481C490160FD
:103170005321C0E9011440F2E731C0E9031484612E
:10318000FFF702F808B1FEF701F84FF480500790FE
:1031900007A91448FFF77AF808B1FDF7F7FF1148BF
:1031A000FFF70DFA08B1FDF7F1FF0B940BA90D48DD
:1031B0000C94FEF7A1FF08B1FDF7E8FF6020CDE910
:1031C000000402940022694606480494FFF791F92E
:1031D00008B1FDF7DBFF0348FFF760F90EB010BD43
:1031E00000040040080100200C4810B50A490160A5
:1031F0004FF4E1314160002181600C22C160C0E9DF
:1032000004128161C161FFF7F9FB002803D0BDE81A
:103210001040FDF7BBBF10BD001001405001002061
:103220000C4810B50A4901604FF4E13141600021BA
:1032300081600C22C160C0E904128161C161FFF7A5
:10324000DDFB002803D0BDE81040FDF79FBF10BD97
:103250000014014098010020FEE7FEE738B50C4657
:103260000546FEF74DF88DF8000000283BD02146BA
:103270002846FEF701F81C4C002528B12570FFF701
:10328000FFFC1AA0FDF7D2F89DF80000012802D03B
:10329000032817D01CE001F0E5F8616819B1411A64
:1032A000B1F57A7F07D9606000F04AF900F054F96F
:1032B000014619A003E000F04FF901461DA0FDF7FB
:1032C000B5F805E000F05AF925A06560FDF7AEF805
:1032D0009DF8001029A0FDF7A9F800231A466946B9
:1032E000206A01F053F938BD000000205B4C4544D2
:1032F0005D2067616D6520657869742F6F66666C07
:10330000696E652C204C4544312D4C454438206F66
:1033100066662E0D0A0000005B53434F52455D2048
:1033200077696E202B312C2073636F72653D257594
:103330000D0A00005B53434F52455D206475706C6D
:1033400069636174652077696E2069676E6F726565
:10335000642C2073636F72653D25750D0A000000B3
:103360005B53434F52455D20726573657420746FE3
:1033700020303030302E0D0A000000005B4D5154DB
:10338000545D20524553554C5420726563656976EF
:1033900065642C2062757A7A6572206576656E7434
:1033A0003D25640D0A00000070B50C460546032853
:1033B00018D8092C00D9002400F060F80A48005DF4
:1033C00000F08CF8284600F06BF801221103074842
:1033D000FEF7FBFABDE8704000224FF4007104488C
:1033E000FEF7F3BA70BD00009C5F000800000240C9
:1033F0000008024038B542F20F71884200D90846F1
:103400004FF47A71B0FBF1F28DF80020B0FBF1F2CD
:1034100001FB12026421B2FBF1F28DF80120B0FB36
:10342000F1F201FB12020A21B2FBF1F28DF8022047
:10343000B0FBF1F201FB1200084C8DF8030020787C
:103440001DF80010FFF7B0FF2078401CC0B22070BC
:10345000042801D30020207038BD00005C0000204B
:10346000054910B50020087000F008F8BDE81040CC
:10347000002000F033B800005C00002010B50122ED
:1034800051020548FEF7A1FABDE8104000224FF4B2
:1034900080510248FEF799BA00080240000002403D
:1034A00070B5044600F001024FF400410948FEF7F0
:1034B0008CFA094DC4F340024FF480612846FEF7B0
:1034C00084FAC4F38002E9142846BDE87040FEF790
:1034D0007CBA000000000240000802402DE9F047DD
:1034E000154EDFF85890054600244FF400674FF45E
:1034F0008078002239463046FEF767FAEA094146ED
:103500004846FEF762FA6806050E01223946304643
:10351000FEF75BFA641CE4B2082CEAD300224446AE
:1035200041463046FEF751FA21463046BDE8F047A5
:103530000122FEF74ABA00000000024000080240E3
:103540000448018842F20F72914202D20188491C5C
:103550000180704784000020014800887047000007
:103560008400002010B5FFF77BFF03480021018095
:10357000FA21418010BD0000840000200149002094
:1035800008807047840000200548418829B141889F
:10359000491E418042F2B82000E00088FFF72ABFB0
:1035A0008400002008B5184E012500BF01F0B6FCCC
:1035B000044601F0BFFC14B118B9012405E000B1C4
:1035C0000CB1012512E04FF0FF347DB18DF80040C1
:1035D0003078002550B100231A466946F06900F0A2
:1035E000D5FF38B1214609A0FCF720FF012000F0EB
:1035F0002CFFDBE72046FDF797FA024621460DA097
:10360000FCF714FFF2E70000000000205B42555475
:10361000544F4E5D206E65745175657565206675F5
:103620006C6C2C2064726F70206D6F76653D256424
:103630000D0A00005B425554544F4E5D2073746573
:1036400070207175657565643A202564202825739E
:10365000290D0A0008B50E4C4FF0FF352B4600220D
:103660006946206A00F034FF0028F7D19DF8001069
:1036700008A0FCF7DBFE9DF80000012804D002281A
:10368000ECD1FDF767FAE9E7FDF78AFAE6E7000013
:10369000000000205B42555A5A45525D2065766510
:1036A0006E743D25640D0A00FFF76EFF012000F0E7
:1036B000CCFEF9E72DE9F043C1B05949594800F073
:1036C00000FD584800F026FEFDF742FAFFF74AFFDA
:1036D000FFF736FB54A0FCF7A9FE02215DA0FCF722
:1036E000A5FE60A162A0FCF7A1FE40F25B752A4630
:1036F00063A167A0FCF79AFE6BA16FA0FCF796FE92
:1037000072A178A0FCF792FE7BA180A0FCF78EFE50
:1037100083A189A0FCF78AFE8CA0FCF787FE954E5A
:10372000002440F6B8373470FFF728FFFFF7A8FAF7
:1037300091A0FCF77BFEFDF723FC08B196A01BE0EF
:10374000A1A0FCF773FEABA0FCF770FE8948202116
:103750002430FDF789FB002814D0AEA0FDF78EFEC3
:10376000AEA0FCF763FE2A4645A1BBA0FCF75EFEB7
:10377000FDF78EFA80B1C3A0FCF758FE384600F082
:1037800064FED0E77B482430FDF778FE7949C8A075
:103790002431FCF74BFEE6E7CBA0FCF747FE42A145
:1037A000D8A0FCF743FEFFF7CFFA08B1DFA0E3E7AC
:1037B000E9A0FCF73BFE5AA1EDA0FCF737FE58A0AC
:1037C000FFF7B8FBF0A0FCF731FEF6A0FCF72EFEE9
:1037D000032500244FF49677FDF71CFE384600F0D1
:1037E00034FE641CE4B2AC42F6D3F6A0FCF71EFE35
:1037F00001203070FFF772FA4FF480796F46002392
:103800001A4640A9F06900F063FE40B99DF9000135
:10381000FDF78AF902469DF9001137A3EAE1F0E1CC
:1038200098010020E80200200D0A3D3D3D3D3D3D50
:103830003D3D3D3D20506F6E674374726C20537464
:10384000617274203D3D3D3D3D3D3D3D3D3D0D0A98
:1038500000000000506C617965722049443A2025CF
:10386000640D0A006368696C6C6368696C6C0000C5
:103870005769466920535349443A2025730D0A007D
:103880003139322E3136382E3133372E31000000A7
:103890004D5154542042726F6B65723A2025733A31
:1038A00025640D0A0000000053544D33325F504C24
:1038B000415945525F3200004D51545420436C69C8
:1038C000656E7449643A2025730D0A0047414D45E1
:1038D0002F504C415945522F322F53544154555378
:1038E0000000000053544154555320546F706963D5
:1038F0003A2025730D0A000047414D452F504C4199
:103900005945522F322F494E50555400494E50556B
:103910005420546F7069633A2025730D0A0000002B
:1039200047414D452F504C415945522F322F52455A
:1039300053554C5400000000524553554C542054EC
:103940006F7069633A2025730D0A00003D3D3D3DCF
:103950003D3D3D3D3D3D3D3D3D3D3D3D3D3D3D3D97
:103960003D3D3D3D3D3D3D3D3D3D3D3D3D3D3D3D87
:103970000D0A0000000000205B4E45545D204553B9
:10398000503832363620696E6974207374617274EF
:103990002E2E2E0D0A0000005B4E45545D2045532F
:1039A000503832363620696E6974206661696C65FC
:1039B000642C20726574727920616674657220339C
:1039C000732E0D0A000000005B4E45545D204553E8
:1039D000503832363620696E6974204F4B2C205790
:1039E00069466920636F6E6E65637465642E0D0AA7
:1039F000000000005B4E45545D2052656164696EB5
:103A00006720455350383236362049502E2E2E0D21
:103A10000A000000756E6B6E6F776E005B4E45544A
:103A20005D2045535038323636204950207265614A
:103A300064206661696C65642C205354415455536D
:103A40002077696C6C2075736520756E6B6E6F776F
:103A50006E2E0D0A000000005B4E45545D2054435D
:103A60005020636F6E6E65637420746F204D5154E7
:103A7000542042726F6B65722025733A25642E2E96
:103A80002E0D0A005B4E45545D2054435020636F59
:103A90006E6E656374206661696C65642C20726566
:103AA0007472792061667465722033732E0D0A007A
:103AB0005B4E45545D2045535038323636204950D0
:103AC0003A2025730D0A00005B4E45545D20544397
:103AD0005020636F6E6E65637465642C204553508F
:103AE0003832363620656E74657265642074726192
:103AF0006E73706172656E74206D6F64652E0D0A51
:103B0000000000005B4D5154545D20434F4E4E4524
:103B100043542073746172742C20436C69656E7415
:103B200049643D25732E2E2E0D0A00005B4D515425
:103B3000545D20434F4E4E454354206661696C6589
:103B4000642C20726574727920616674657220330A
:103B5000732E0D0A000000005B4D5154545D20434C
:103B60004F4E4E454354204F4B2E0D0A000000008F
:103B70005B4D5154545D2053554253435249424585
:103B80002025730D0A0000005B4D5154545D2053F5
:103B900055425343524942452073656E742E0D0AB7
:103BA000000000005B4D5154545D205075626C69FB
:103BB0007368205354415455532073746172742EAA
:103BC0000D0A00005B4D5154545D205075626C69C4
:103BD00073682053544154555320646F6E652C20F4
:103BE000626F617264206973206F6E6C696E652EFE
:103BF0000D0A000011A0FCF719FC9DF90001FDF76A
:103C0000C5FBFFF73BF949466846FDF7A7FA0500F3
:103C100010D000244FF003080AE0395DB8EB111F03
:103C200004D1281B81B23819FFF718FB641CA4B219
:103C3000AC42F2D30A2000F008FCE0E55B494E50AC
:103C400055545D206D6F76653D25642028257329C8
:103C50002C207075626C69736820746F2025730D59
:103C60000A00000000240B4D4FF4FA76287838B192
:103C700034B9084908A02431FCF7D8FBFDF7CAFB8A
:103C8000641CE4B2062C00D30024304600F0DDFBB7
:103C9000ECE70000000000205B5354415455535D95
:103CA000207075626C697368206F6E6C696E652038
:103CB0007374617475732C2069703D25730D0A004F
:103CC00010B54FF0E020006901F00EFF012803D08D
:103CD000BDE8104001F0CEBB10BD000030B593B080
:103CE00030216846FCF7FEFC14210CA8FCF7FAFC16
:103CF0001D480025016841F080510160006800F016
:103D0000805011901948016841F4804101600068B9
:103D1000022400F4804011900120009000040190E2
:103D20008001CDE9064008AA0420A82182E81300FA
:103D30000B906846FEF728F808B172B6FEE70CA9AA
:103D40000F2081E831004FF4A0500F904FF48050C5
:103D5000109005210CA8FDF70DFF002801D072B6C8
:103D6000FEE713B030BD0000403802400070004054
:103D70000248016841F470010160704788ED00E07D
:103D80000148FEF7F2BA0000A0020020F0B5026878
:103D9000274B284D284E294F294C4FF0804C9842F4
:103DA00009D0604507D0A84205D0B04203D0B84240
:103DB00001D0A04204D122F0700E4A6842EA0E02FD
:103DC00098421BD0604519D0A84217D0B04215D0F8
:103DD000B84213D0A04211D01A4DA8420ED01A4DAD
:103DE000A8420BD0194DA84208D0194DA84205D0C1
:103DF000184DA84202D0184DA84203D122F44075B4
:103E0000CA682A434D6922F080022A438D68C56240
:103E10000D688562984201D0A04201D10969016311
:103E2000016841F004010160012141610260F0BDBF
:103E3000000001400004004000080040000C004069
:103E4000000401400040014000440140004801409E
:103E500000180040001C00400020004010B501F098
:103E60001F030121046A99408C430462016A9A404D
:103E70001143016210BD10B5846842EA032224F4A4
:103E80007F440A432243826010BD826822F07002A0
:103E90000A4342F00701816070470000F0B5036AF1
:103EA000026A22F00102026242688469124E24F022
:103EB00073050C682C4323F002058B682B430D4DD2
:103EC000A84201D0B04205D123F00807CB683B439C
:103ED00023F00403A84201D0B04205D14D6922F479
:103EE000407215438A692A4342608461496841638C
:103EF0000362F0BD0000014000040140F0B5026A19
:103F0000036A23F010030362436884690D6824F494
:103F1000E64444EA05248D6822F0200242EA0512B4
:103F20000F4D104EA84201D0B04206D1CF6822F00A
:103F3000800242EA071222F04002A84201D0B042B9
:103F400007D14D6923F4406343EA85038D6943EA51
:103F5000850343608461496881630262F0BD0000AB
:103F60000000014000040140F0B5026A036A23F436
:103F7000807303624368C46922F4007224F07305FD
:103F80000C68124E2C438D6842EA05220E4DA84261
:103F900001D0B04206D1CF6822F4006242EA072283
:103FA00022F48062A84201D0B04207D14D6923F4C7
:103FB000405343EA05138D6943EA05134360C46126
:103FC0004968C1630262F0BD000001400004014085
:103FD00030B5046A026A22F4805202624268C36900
:103FE0000D6823F4E64343EA05238D6824F4005466
:103FF00044EA0534084DA84202D0084DA84204D135
:104000004D6922F4804242EA85124260C3614968E8
:104010000164046230BD0000000001400004014062
:1040200010B5036A046A24F001040462846924F070
:10403000F00444EA021423F00A020A438461026293
:1040400010BD10B5036A046A24F010040462846988
:1040500023F0A00324F4704444EA023243EA01113D
:104060008261016210BD10B5806B0021C185FEF731
:1040700083FB10BD01680C3151E8002F22F49072CF
:1040800041E80023002BF5D10168143151E8002FDD
:1040900022F0010241E80023002BF5D1016B012938
:1040A00009D101680C3151E8002F22F0100241E8DB
:1040B0000023002BF5D1202180F84210002101635C
:1040C000704701600021A0F80614A0F804144FF412
:1040D0008061001DFCF706BBB0F80414B0F80604BC
:1040E000081A00F58060C11700EB91516FF30901C8
:1040F000401A80B2704770B500240D460346061D75
:104100000CE0B3F80604805D2855641CB3F806047F
:10411000A4B2401CC0F30900A3F806041846FFF738
:10412000DBFF08B19442ECD3204670BDB0F80434F4
:10413000021D9954B0F80414491CC1F30901A0F8F8
:104140000414704708B590F84210222901D00220CB
:1041500008BD82684FF480539A4201D1016921B1B0
:10416000816A9A421BD04AB10AE00268816A5268A9
:10417000C2F308020A80816A891C08E0026972B1F0
:104180000268526802F07F020A70816A491C8162EB
:10419000C18D491E0904090CC18503D01BE00268CA
:1041A0005268F1E70168CA6822F02002CA6001681B
:1041B000CA6822F48072CA6001684A6922F001026A
:1041C0004A61202180F8421000214163026B012ADC
:1041D00003D0FEF7E9FC002008BD016301680C3143
:1041E00051E8002F22F0100241E80023002BF5D106
:1041F00001680A68D20602D50A6849680091818D73
:10420000FEF7B9FAE7E7000070B5044600680169F7
:10421000E26821F44051114301612169A068E2691B
:1042200008436169114308432168CA6849F20C6375
:104230009A430243CA6020684169A26921F440712F
:104240001143416131492068884202D03049884297
:1042500002D1FDF759FD01E0FDF746FDE2690023BB
:10426000192164253226B2F5004F626828D0A0FBE0
:104270000101930F9200FCF762F80146B0FBF5F0E4
:104280006FF01802504301EB800006EB0010B0FB0A
:10429000F5F000F0F002B1FBF5F002EB0012B1FB1B
:1042A000F5F06FF01803584301EB800006EB0010A7
:1042B000B0FBF5F000F00F0021681044886070BD7D
:1042C000A0FB010192185B41FCF739F80146B0FBF5
:1042D000F5F00201B1FBF5F06FF01803584301EB64
:1042E000800006EBC000B0FBF5F000F0F80002EB38
:1042F0004002B1FBF5F0584301EB800006EBC00033
:10430000B0FBF5F000F00700D6E700000010014018
:1043100000140140006801220149FEF737BC00008B
:104320005400002081628285C285002141642221DF
:1043300080F84210016921B10168CA6842F48072B4
:10434000CA6001684A6942F001024A610068C168B6
:1043500041F02001C160002070472DE9F8439846E4
:1043600017460D460446089E24E0701C22D0FDF737
:1043700031FBA0EB0800B0421AD8CEB12068C1686A
:10438000490717D5802D15D0402D13D00168C9439A
:1043900009070FD401680025406800902046FFF708
:1043A00069FE0820606484F840500120BDE8F8836D
:1043B0000320FBE72068006835EA000004D00020F5
:1043C000B842D2D00020F1E70120F9E70148FEF71A
:1043D000D5B90000500100200148FEF7CFB9000018
:1043E00098010020FEE70907090E002804DB00F110
:1043F000E02080F80014704700F00F0000F1E0208A
:1044000080F8141D7047704713B564230122694674
:104410000248FEF7E3FB00981CBD0000500100209D
:10442000FDF7E6FAFFF75AFCFEF70CFEFEF7AAFDD1
:10443000FEF7DAFEFEF78CFEFEF7F2FE00F01AF849
:10444000FEF7BEFD00F028F8FEE710B5EFF305819A
:1044500011B16FF0050403E0002408B100F0AAFEDA
:10446000204610BDEFF3058008B101F051BB01F00B
:1044700049BB0000EFF3058010B16FF005007047F5
:104480000448016811B14FF0FF307047012101600D
:1044900000207047D800002010B5EFF3058010B160
:1044A0006FF0050010BD08480168012902D04FF0E7
:1044B000FF3010BD054A002182F8141D0221016061
:1044C00000F0E0FE002010BDD80000200BE000E06E
:1044D000F8B51D466FF003026FF002064FF00004BE
:1044E000EFF30583A3B1F0B1E9B1E5B90022009281
:1044F0006A4601F019FA012817D10098B0B10C49A9
:104500004FF080500860BFF34F8FBFF36F8F0DE007
:1045100048B141B12A4601F06BF9012806D025B116
:104520006FF0010402E0144600E034462046F8BD76
:1045300004ED00E0F8B514464FF00005EFF30582F6
:1045400012BB08B301B3A4B1D4E9023263B1502A5B
:104550001AD32269C2B1676900FB01F6B74213D3CF
:10456000009500F0BEFF07E072B9226962B9626986
:1045700052B9002200F094FF050005D00CB121686B
:1045800000E0002100F0E0FD2846F8BDF8B51D462A
:104590006FF003026FF002064FF00004EFF30583A3
:1045A000ABB100B3F9B1F5B90022134600926A46E7
:1045B00001F0BEF8012818D10098B8B10C494FF0AD
:1045C00080500860BFF34F8FBFF36F8F0EE050B184
:1045D00049B100232A4600F0FBFF012806D025B18F
:1045E0006FF0010402E0144600E034462046F8BDB6
:1045F00004ED00E02DE9FF414FEA01034FF0000513
:10460000EFF30581039549BB40B3802718210024AF
:104610004AB3166806B1344696691EB13146761E15
:10462000382E02D21679F60703D0002004B0BDE878
:10463000F081566906B1B708D2F808C0BCF1000F86
:104640000DD0D5685C2D18D312693AB136B18DE81A
:1046500006103A46214601F01CFA03900DE0D66898
:104660005EB912694AB903AACDE90012BAB221466D
:1046700001F0E2F9012800D003950398D6E7000085
:104680002DE9F041134C0F460546E6682068001DF1
:1046900000F05CFC681C07D137B12168BDE8F0412F
:1046A0000D48091D00F0A2BC20683544B5424560A4
:1046B000216805D2A06BBDE8F041091D00F07EBC69
:1046C000606B091D00F07AFCA06A854200D2A562E9
:1046D000BDE8F08188000020E00B00202DE9F041CA
:1046E000054600F08FFC2D4CA068401CA06020689F
:1046F0002B4F10B1606930B32BE02560A068012812
:1047000027D1002606EB860007EB800000F048FC6E
:10471000761C382EF6D3234800F042FC2148143092
:1047200000F03EFC1F48283000F03AFC1D483C30A9
:1047300000F036FC1B48503000F032FC1948606332
:104740001430A06305E02068E96AC06A884200D896
:104750002560606A401C60626864E86A216988427A
:1047600000D9206100EB800007EB8000291D00F0DC
:104770003DFC00F067FC606900280CD02068E96A05
:10478000C06A884207D208494FF080500860BFF3E2
:104790004F8FBFF36F8FBDE8F081000088000020CD
:1047A00030070020900B002004ED00E038B500F049
:1047B00029FC104C2068C8B90F4800F0F1FB0E48E6
:1047C000143000F0EDFB0C48E060143020610A4B1F
:1047D0000020F03B009003F1500210210A2000F06D
:1047E00080FE206010B105A100F0AEFCBDE83840AD
:1047F00000F028BCC4000020E40C0020546D72516D
:104800000000000030B4026C0B46002A0BD0C168D7
:104810001144C1608468A14201D30168C16030BC09
:104820001846FBF712BF30BC70472DE9F041856B8D
:10483000174604460026026C82B1C7B1E068FBF758
:1048400004FFE168206C091AE1602268914202D2FB
:10485000A168081AE060022F16D017E02068A8B9F6
:10486000A06801F0C1F906460020A0600EE0606873
:10487000FBF7EBFE216C606808446060A168884229
:1048800004D32068606001E005B16D1E6D1CA56356
:104890003046BDE8F08110B5044690F8590058B193
:1048A00001280CD002280FD0502080F31188BFF3CC
:1048B0004F8FBFF36F8FFEE7206B00F0D7FB2046D2
:1048C000BDE8104000F0D2BB10BD000010484FF40E
:1048D0007051420706D0C01D0D4920F00700411A53
:1048E000C1F570510B4A00230144C2E900030839A5
:1048F000183A21F0070111604B600B600B1AC0E9F8
:10490000001393604FF00040536050617047000007
:10491000C4130020F4000020144E154CA6F29C474E
:104920004FF08058DFF84C9012E000BF00F06AFBB7
:10493000F068C568281D00F009FBA068401EA06053
:104940006068401E606000F07DFB2846FFF7A3FF13
:1049500060680028EAD138680128F9D9C9F80080D0
:10496000BFF34F8FBFF36F8FF2E70000CC0B002037
:104970008800002004ED00E070B51D46049C51B194
:10498000C4F80020C4E90F010121204600F0DCFD3D
:1049900084F84C5070BD2460F4E700002DE9F05F0E
:1049A0008846DDE90B941546834691009A460A9E97
:1049B000A522206BFBF78EFE6FF00301206B01EB4D
:1049C0008501084420F00707780707D0502080F3BE
:1049D0001188BFF34F8FBFF36F8FFEE70025B8F14B
:1049E000000F0FD05FF00000221818F8001082F8B6
:1049F000341018F8001011B1401C1028F4D384F8BA
:104A0000435001E084F83450382E00D33726E66254
:104A1000C4E91365201D00F0CEFA04F1180000F07F
:104A2000CAFA2461C6F138006462A061656584F841
:104A3000585052465946384600F05AFA2060B9F1AB
:104A4000000F01D0C9F80040BDE8F09F30B5114912
:104A500000E011460A688242FBD34B685C1884422E
:104A600003D1406818444860084643681C189442C3
:104A700009D1084C183C2468A24209D052681A4453
:104A800042600A6812680260814200D0086030BD4E
:104A90000460F9E7F400002070B5002441600B4D7C
:104AA0000061914206D8D11A8269914206D2011D55
:104AB000286907E09A4203D2994201D3012403E016
:104AC000011DE86800F07AFA204670BDC40000209D
:104AD00010B5044600F096FAA06B28B15FF0000410
:104AE00000F0B0FA204610BD0124F9E730B589B0D6
:104AF0003C4D6EE00498002806DADDE90601059ACF
:104B000090470498002864DB069C606910B1201D62
:104B100000F01CFA03A800F0D7F8024604980A280F
:104B200057D2DFE800F00505052D334A05052D3382
:104B300094F8280040F0010084F828000599A06945
:104B4000059B01442046FFF7A7FF68B3216A204672
:104B5000884794F8280040073BD50020009005982E
:104B6000A169002342181946204601F047F9D8B937
:104B7000502080F31188BFF34F8FBFF36F8FFEE794
:104B800014F8280F20F00100207022E094F828008B
:104B900040F0010084F828000598A06128B1811830
:104BA00013462046FFF778FF13E0502080F311886A
:104BB000BFF34F8FBFF36F8FFEE794F82800810794
:104BC00003D4204600F052FA03E020F0010084F8FC
:104BD0002800002204A9286800F00AFE002889D1D4
:104BE00009B030BDC40000202DE9FC410F46054648
:104BF00000F08CFB01A800F067F80446019818B19A
:104C000001F06AF8BDE8FC81254EAFB1306900685B
:104C1000D0B30027291B3A46306800F0A9FA01F00A
:104C20005BF80028EED11F494FF080500860BFF3B9
:104C30004F8FBFF36F8FE5E7A542EBD801F04CF83B
:104C4000F0682746C068C468201D00F07FF994F81A
:104C50002800410719D5A0692B4641193A4620463C
:104C6000FFF71AFFA8B100200346014600902A462C
:104C7000204601F0C3F860B9502080F31188BFF3DB
:104C80004F8FBFF36F8FFEE707E020F0010084F83D
:104C90002800216A20468847B4E70127BAE70000C8
:104CA000C400002004ED00E00648416B096829B10A
:104CB000416BC968C9684968816270474FF0FF312C
:104CC000FAE700008800002070B5054600F01AFFE2
:104CD000064E0446B068844203D200F009F8012071
:104CE00000E0002028602046B46070BDC4000020B1
:104CF000F8B5194D20E0C068C4680668201D00F0B2
:104D000025F9216A2046884794F82800400713D5E2
:104D1000A0693044B04206D924616060211DE86872
:104D200000F04CF908E000200346014600903246AE
:104D3000204601F063F838B1E86801680029DAD14B
:104D40002969C5E90310F8BD502080F31188BFF32D
:104D50004F8FBFF36F8FFEE7C40000200848406804
:104D6000401C4FF0500080F3118804D0BFF34F8FE8
:104D7000BFF36F8FFEE7BFF34F8FBFF36F8FFEE779
:104D8000FC000020074CE068016841B1C0680021C8
:104D9000D0F80000FFF728FFFFF7A8FEF3E7012196
:104DA0000020F7E7C40000202DE9F041044600F0A0
:104DB00029F994F9455004F1240609E0606A48B1E4
:104DC000304600F051FF08B100F022FA6D1E6DB2BE
:104DD000002DF3DC4FF0FF3684F8456000F032F927
:104DE00000F010F994F9445004F1100709E020692B
:104DF00048B1384600F038FF08B100F009FA6D1EDE
:104E00006DB2002DF3DC84F84460BDE8F04100F0A1
:104E100019B900002DE9F0410546002700F076FAA7
:104E2000324E306808B9FFF751FD706905424ED126
:104E3000C5B3083568070ED005F00700C0F10800BB
:104E40000544680707D0502080F31188BFF34F8FC7
:104E5000BFF36F8FFEE72DB37068854237D82348C4
:104E6000183001460C6801E020460C466168A942F2
:104E700002D221680029F7D131688C4227D0076817
:104E80002168016060680837411B10290FD960193B
:104E9000420708D0502080F31188BFF34F8FBFF333
:104EA0006F8FFEE713E041606560FFF7CFFD61683B
:104EB0007068401A7060B268904200D2B060706949
:104EC00001430020C4E90001F068401CF06000F0DC
:104ED00003FF780707D0502080F31188BFF34F8F6E
:104EE000BFF36F8FFEE73846BDE8F081DC0000209D
:104EF00010B5031F4FF080741C601B1F21F00101CF
:104F00001960191F044B0B6014390A60091F6FF0F8
:104F1000020244380A6010BD5D4D000810B5022140
:104F20000348FCF74DFD08B1002010BD012010BD65
:104F30000010024010B510210348FCF741FD08B1F4
:104F4000002010BD012010BD00100240D0E9013248
:104F500001699A60D0E901235A604A68824201D10E
:104F600082684A60002202610868401E0860086882
:104F700070470000034B036003F15C000860802071
:104F8000106070470C0D0020044B036003F15C00BF
:104F900008604FF48070106070470000680F0020B8
:104FA00000F108014FF0FF32C0E90112C160016158
:104FB00000210160704700210161704730B50B6826
:104FC0005A1C02D000F1080202E0026904E0224605
:104FD000546825689D42FAD953684B6099608A608D
:104FE000516008610168491C016030BD42684A6037
:104FF00093688B6093685960916008610168491CEF
:1050000001607047502080F31188BFF34F8FBFF3CA
:105010006F8F0A494868401C486001280CD1084835
:10502000006810F0FF0F07D0502080F31188BFF305
:105030004F8FBFF36F8FFEE770470000FC0000202A
:1050400004ED00E00849486828B1401E486001D1DD
:1050500080F311887047502080F31188BFF34F8F81
:10506000BFF36F8FFEE70000FC00002070B5002842
:105070002AD0164DA0F1080460686969084207D17A
:10508000502080F31188BFF34F8FBFF36F8FFEE77F
:1050900022683AB1502080F31188BFF34F8FBFF3DD
:1050A0006F8FFEE78843606000F030F960686968E0
:1050B000084468602046FFF7C9FC2869401C286145
:1050C000BDE8704000F008BE70BD0000DC000020AC
:1050D0004FF0E02000210161816105494FF47A72AF
:1050E0000968B1FBF2F1491E416107210161704776
:1050F0005000002010B5FBF7FDF8114910280ED321
:1051000000F1E02090F8F0030A78904207D2502096
:1051100080F31188BFF34F8FBFF36F8FFEE709480D
:105120000068896800F4E060884207D9502080F365
:105130001188BFF34F8FBFF36F8FFEE710BD0000E4
:10514000FC0000200CED00E010B5084B002200BF71
:1051500053F832401CB1521C082AF9D310BD43F851
:10516000321003EBC201486010BD0000F0060020C1
:1051700070B515460E460446FFF744FF94F94410F7
:105180000020491C01D184F8440094F94510491CC1
:1051900001D184F84500FFF755FFA06B28B92A46D6
:1051A000314604F1240000F051F82046BDE870407B
:1051B000FFF7FABD10B5020014D00F48006B38B1EC
:1051C000502080F31188BFF34F8FBFF36F8FFEE73E
:1051D00000F09CF800211046FFF752FA00F07CFD29
:1051E000002807D105494FF080500860BFF34F8F6A
:1051F000BFF36F8F10BD00008800002004ED00E0B9
:1052000002490A6A0260C96841607047880000204C
:1052100001490120C86170478800002010B50C4684
:1052200050B1094909681831FFF7C8FE2046BDE8AA
:1052300010400121FFF724BA502080F31188BFF3FA
:105240004F8FBFF36F8FFEE78800002070B51446C4
:105250000D4668B10A4909681831FFF7C7FE0CB15D
:105260004FF0FF3521462846BDE87040FFF708BAE9
:10527000502080F31188BFF34F8FBFF36F8FFEE78D
:105280008800002030B587B00024039405AA04A943
:1052900003A80494FFF76EFEDDE903010094CDE955
:1052A0000110002315A11748059A00F0F2FB164DD6
:1052B0000028E8621FD000F071FD012809D0401CD1
:1052C00019D1502080F31188BFF34F8FBFF36F8F38
:1052D000FEE7502080F31188BFF34F8FBFF36F8F2D
:1052E0004FF0FF30A86201206861EC6007B0BDE8B4
:1052F000304000F045B807B030BD000049444C458F
:105300000000000019490008880000200248016BD5
:10531000491C01637047000088000020164810B542
:10532000016B11B10121C16110BD0021C161016991
:10533000124A01E0B9B1491E01EB810352F8233052
:10534000002BF7D001EB810302EB830202F108048A
:1053500053685B685360A34201D15B685360DA68AD
:105360000260016110BD502080F31188BFF34F8FA0
:10537000BFF36F8FFEE70000880000203007002099
:105380001CB537480168374A914207D1502080F355
:105390001188BFF34F8FBFF36F8FFEE7006831496D
:1053A000491E884207D1502080F31188BFF34F8FE8
:1053B000BFF36F8FFEE72C4908780190FF2008703B
:1053C00008788DF800009DF800009DF8002000F09E
:1053D000F000904207D0502080F31188BFF34F8F28
:1053E000BFF36F8FFEE79DF80000204C00F05000E7
:1053F00020700720A06005E09DF8002052008DF885
:105400000020401E9DF800201206F5D4A06003285D
:1054100007D0502080F31188BFF34F8FBFF36F8FF9
:10542000FEE74FF44070A060019808700C482030EF
:10543000016841F470010160016841F07041016050
:10544000FFF746FE00206060FAF71CFF084801687D
:1054500041F040410160FAF701FF00201CBD00004F
:1054600000ED00E071C20F4100E400E0FC0000200C
:1054700034EF00E010B5502080F31188BFF34F8F58
:10548000BFF36F8F00F04CFB18B104494FF0805010
:105490000860002080F3118810BD000004ED00E0DA
:1054A000F8B517460E46050013D005FB06F0503040
:1054B000FFF7B0FC04000AD0002084F8460004F195
:1054C00050023B46314628460094FFF755FA2046E5
:1054D000F8BD502080F31188BFF34F8FBFF36F8F5B
:1054E000FEE738B5049D18B153B1CAB181B120E0CF
:1054F000502080F31188BFF34F8FBFF36F8FFEE70B
:10550000502080F31188BFF34F8FBFF36F8FFEE7FA
:10551000502080F31188BFF34F8FBFF36F8FFEE7EA
:1055200039B1502080F31188BFF34F8FBFF36F8FD5
:10553000FEE750241C46012384F846302B46009495
:10554000FFF71AFA204638BD70B50D46040025D085
:10555000FFF758FDD4E90F20216802FB0011A1607C
:105560000021A163216861600A46D4E90F01401E51
:1055700000FB0121E16021464FF0FF3001F8440FAC
:10558000487004F110008DB1FFF70AFD04F124000A
:10559000FFF706FDFFF756FD012070BD502080F398
:1055A0001188BFF34F8FBFF36F8FFEE7216900298A
:1055B000F0D000F059FB0028ECD004494FF08050A7
:1055C0000860BFF34F8FBFF36F8FE3E704ED00E098
:1055D0002DE9FF4782B01D468A464FF000080400BF
:1055E00003D0BAF1000F08D011E0502080F31188E9
:1055F000BFF34F8FBFF36F8FFEE7206C38B15020A1
:1056000080F31188BFF34F8FBFF36F8FFEE7022D3A
:105610000AD1E06B012807D0502080F31188BFF336
:105620004F8FBFF36F8FFEE700F05EFA3F4F4FF0F2
:1056300000094FF0805648B9049838B1502080F3E3
:105640001188BFF34F8FBFF36F8FFEE7FFF7DAFCD0
:10565000A06BE16B884207D3022D05D00498D0B12E
:10566000B8F1000F1AD01EE02A4651462046FFF737
:10567000DCF8616A19B104F1240000F0F5FA20B1F8
:105680003E60BFF34F8FBFF36F8FFFF7DBFC01204E
:1056900006B0BDE8F087FFF7D5FC22E06846FFF7CB
:1056A000AFFD4FF00108FFF7CDFCFFF72FFEFFF72E
:1056B000A9FC94F94400401C01D184F8449094F969
:1056C0004500401C01D184F84590FFF7BBFC04A9BC
:1056D000684600F077F930B12046FFF765FB00F02F
:1056E000FBFA0020D4E7FFF78DFCA06BE16B88424A
:1056F00013D1FFF7A7FC04F110000499FFF78EFD0A
:105700002046FFF751FB00F0E7FA00289ED13E60EB
:10571000BFF34F8FBFF36F8F98E7FFF793FC2046DF
:10572000FFF742FB00F0D8FA90E7000004ED00E03C
:105730002DE9F0471F4690468946040003D0B9F191
:10574000000F08D011E0502080F31188BFF34F8F75
:10575000BFF36F8FFEE7206C38B1502080F31188C3
:10576000BFF34F8FBFF36F8FFEE7022F0AD1E06BBD
:10577000012807D0502080F31188BFF34F8FBFF36B
:105780006F8FFEE7FFF7B6FC5020EFF3118680F332
:105790001188BFF34F8FBFF36F8FA06BE16B88420F
:1057A00006D3022F04D0002086F31188BDE8F087CD
:1057B00094F94550A06B3A4649462046FFF735F824
:1057C000681C04D06D1C84F845500120ECE7606A29
:1057D0000028FAD004F1240000F046FA0028F4D0A2
:1057E000B8F1000FF1D00121C8F80010EDE700007A
:1057F0002DE9F747002683B08A46040003D0BAF1AA
:10580000000F08D011E0502080F31188BFF34F8FB4
:10581000BFF36F8FFEE7206C38B1502080F3118802
:10582000BFF34F8FBFF36F8FFEE700F05DF9DFF836
:10583000F4804FF000094FF0805748B9059838B10F
:10584000502080F31188BFF34F8FBFF36F8FFEE7B7
:10585000FFF7D8FBA56BC5B151462046FEF7D2FF36
:105860006D1EA563206950B104F1100000F0FCF931
:1058700028B1C8F80070BFF34F8FBFF36F8FFFF7E9
:10588000E1FB012006B0BDE8F087059808B11EB124
:1058900006E0FFF7D7FB27E06846FFF7B1FC0126DB
:1058A000FFF7D0FBFFF732FDFFF7ACFB94F94400A4
:1058B000401C01D184F8449094F94500401C01D16A
:1058C00084F84590FFF7BEFB05A9684600F07AF81A
:1058D000002820460AD0FFF767FA00F0FDF92046BD
:1058E000FFF7F6F80028B3D00020CBE7FFF7F0F879
:1058F00090B104F124000599FFF790FC2046FFF7D2
:1059000053FA00F0E9F90028A2D1C8F80070BFF3FB
:105910004F8FBFF36F8F9BE72046FFF745FA00F0EC
:10592000DBF995E704ED00E02DE9F0479046894664
:10593000040003D0B9F1000F08D011E0502080F32B
:105940001188BFF34F8FBFF36F8FFEE7206C38B124
:10595000502080F31188BFF34F8FBFF36F8FFEE7A6
:10596000FFF7C8FB5020EFF3118680F31188BFF3D7
:105970004F8FBFF36F8FA76BF7B194F9445049462F
:105980002046FEF73FFF7F1EA763681C04D06D1CF6
:1059900084F84450012010E020690028FAD004F176
:1059A000100000F061F90028F4D0B8F1000FF1D038
:1059B0000121C8F80010EDE7002086F31188BDE84A
:1059C000F08700002DE9F0410C46050011D0C4B16C
:1059D000FFF718FB174BDA686E682068911B471CAD
:1059E00017D02F681B6A9F4219D0964217D80124FE
:1059F00010E0502080F31188BFF34F8FBFF36F8FFB
:105A0000FEE7502080F31188BFF34F8FBFF36F8FF5
:105A1000FEE70024FFF716FB2046BDE8F081884230
:105A200005D9401A20602846FFF7EAFBF1E700207D
:105A30002060DCE7880000202DE9FF5F8346DDE978
:105A40000E87994616468A469000FFF7E3F905004F
:105A50001CD05C20FFF7DEF9040014D00020256381
:105A600084F85900CDE90240CDE900874B46324623
:105A700051465846FEF792FF2046FEF72FFE0120C2
:105A800004B0BDE8F09F2846FFF7F0FA4FF0FF3072
:105A9000F6E7F0B585B0DDE90B640A9DA6B1DCB18F
:105AA0005C2700972663022684F85960002604AF1D
:105AB000CDE90246CDE90057FEF770FF2046FEF71C
:105AC0000DFE049805B0F0BD502080F31188BFF39F
:105AD0004F8FBFF36F8FFEE7502080F31188BFF325
